:080000000C944F000C94000069
:100008000C9400000C9400000C9400000C94000068
:100018000C9400000C9400000C9400000C94000058
:100028000C9400000C9400000C9400000C94000048
:100038000C9400000C9400000C9400000C94000038
:100048000C9400000C9400000C9400001027E803A6
:1000580064000A00010000100001100001002043A4
:100068006C6F636B57697365416E7469436C6F633A
:100078006B576973650001002D4E414E00494E468D
:1000880000000A00600166000D006B0170000100AD
:1000980079017E000000F894EE27ECBBF1E0FBBF8D
:1000A800EBBFE5BF8DE0A2E0BB27ED938A95E9F7AA
:1000B80080E094E0A0E6ED930197E9F7EAE8F0E044
:1000C80085919591009761F0A591B591059015904E
:1000D800BF01F00105900D920197E1F7FB01F0CF08
:1000E800EFE5EDBFE4E0EEBFC0E6D1E00C94A90077
:1000F800AA93E881E2BBE1E0E5BBA5E0B0E00E949D
:10010800F200E0E0E5BB21960895BA93AA9355243E
:10011800A881B9810E94E000A52DB0E0AE17BF0705
:1001280090F4A881B981EE27A50DBE1FEC91E2BB22
:10013800E5E0E5BBE4E0E5BBEFE0E51511F4A0EC94
:10014800D7DF5394E5CF22960895EFEFE4BBE1BBE8
:10015800B998BA9AD198D29AA1E0CADFA6E0C8DFC6
:10016800ACE0C6DFA8E3C4DFB19B09C0C29AA0E82F
:10017800BFDFA0ECBDDFABE6B1E0C7DF07C0B199D8
:1001880008C0C298A1E0B4DFA0ECB2DFA2E30E94ED
:10019800EC00C99B07C0DA9AA1E0AADFA0E6B1E0AB
:1001A800B4DF05C0C99906C0DA98A1E0A1DFA2E3CF
:1001B8000E94EC00D9CFFFCFBA93AA93A991B99125
:1001C800EE27FF276D91662311F03196FBCF089536
:1001D800B0E00E94F200A1E00C947C00109639F087
:1001E80080EA9FE00197F1F7A8951197C9F708955C
:00000001FF
