:020000000C945E
:100002003D000C9400000C9400000C9400000C9431
:1000120000000C9400000C9400000C9400000C945E
:1000220000000C9400000C9400000C9400000C944E
:1000320000000C9400000C9400000C9400000C943E
:1000420000000C9400000C9400000C9400000C942E
:1000520000001027E80364000A00010000100001FC
:100062001000010001002D4E414E00494E46000095
:100072000100600166000000F894EE27ECBBF1E09D
:10008200FBBFEBBFE5BF8DE0A2E0BB27ED938A95F6
:10009200E9F780E094E0A0E6ED930197E9F7E2E763
:1000A200F0E085919591009761F0A591B591059049
:1000B2001590BF01F00105900D920197E1F7FB0148
:1000C200F0CFEFE5EDBFE4E0EEBFC0E6D1E00C9487
:1000D2006A00EFEFE4BBE7BBD198899A8A9AC99B81
:1000E2000BC0919A9298EFEFE5BBA2E3B0E00E94B9
:1000F2008F00E0E0E5BB0CC0C9990EC0929A9198BE
:10010200EFEFE8BBA2E3B0E00E948F00E0E0E8BBC3
:10011200A2E3B0E00E948F00E2CFFFCF109639F049
:1001220080EA9FE00197F1F7A8951197C9F7089522
:00000001FF
