:0E0000000C9447000C9400000C9400000C942B
:10000E0000000C9400000C9400000C9400000C9462
:10001E0000000C9400000C9400000C9400000C9452
:10002E0000000C9400000C9400000C9400000C9442
:10003E0000000C9400000C9400000C9400000C9432
:10004E0000000C9400001027E80364000A00010071
:10005E0000100001100001003F065B4F666D7D072A
:10006E007F673F065B4F666D7D077F6701002D4EF4
:10007E00414E00494E460000010060017A0000002A
:10008E00F894EE27ECBBF1E0FBBFEBBFE5BF8DE0D4
:10009E00A2E0BB27ED938A95E9F780E094E0A0E615
:1000AE00ED930197E9F7E6E8F0E0859195910097D9
:1000BE0061F0A591B59105901590BF01F0010590E5
:1000CE000D920197E1F7FB01F0CFEFE5EDBFE4E014
:1000DE00EEBFC0E6D1E00C947400649784E1A0E01A
:1000EE00B0E0E6E6F0E00E94B000EFEFEABBE7BB5F
:1000FE0000E010E00A30E0E01E07FCF4DE011A9684
:10010E00A00FB11FEC91EBBBAEE1B0E00E94A600D8
:10011E0020E030E02A30E0E03E0764F4DE01A20F7A
:10012E00B31FEC91E8BBAEE1B0E00E94A6002F5FDA
:10013E003F4FF0CF0F5F1F4FDDCFDACFFFCF1096BF
:10014E0039F080EA9FE00197F1F7A8951197C9F76A
:10015E000895AC0FBD1F05900D928A95E1F7089595
:00000001FF
