:0A0000000C943D000C9400000C94D9
:10000A0000000C9400000C9400000C9400000C9466
:10001A0000000C9400000C9400000C9400000C9456
:10002A0000000C9400000C9400000C9400000C9446
:10003A0000000C9400000C9400000C9400000C9436
:10004A0000000C9400000C9400001027E8036400E0
:10005A000A000100001000011000010001002D4EED
:10006A00414E00494E460000010060016600000052
:10007A00F894EE27ECBBF1E0FBBFEBBFE5BF8DE0E8
:10008A00A2E0BB27ED938A95E9F780E094E0A0E629
:10009A00ED930197E9F7E2E7F0E0859195910097F2
:1000AA0061F0A591B59105901590BF01F0010590F9
:1000BA000D920197E1F7FB01F0CFEFE5EDBFE4E028
:1000CA00EEBFC0E6D1E00C947800E8E0EAB9E6E8D1
:1000DA00E0BDE3E3E9B90895AA935D9BFECFE88109
:1000EA00ECB921960895F1DFAEE4F6DFFDCFFFCF3C
:00000001FF
